{
  "_format": "hh-sol-artifact-1",
  "contractName": "NFTMarket",
  "sourceName": "contracts/NFTMarket.sol",
  "abi": [
    {
      "inputs": [],
      "stateMutability": "nonpayable",
      "type": "constructor"
    },
    {
      "anonymous": false,
      "inputs": [
        {
          "indexed": true,
          "internalType": "address",
          "name": "owner",
          "type": "address"
        },
        {
          "indexed": true,
          "internalType": "address",
          "name": "approved",
          "type": "address"
        },
        {
          "indexed": true,
          "internalType": "uint256",
          "name": "tokenId",
          "type": "uint256"
        }
      ],
      "name": "Approval",
      "type": "event"
    },
    {
      "anonymous": false,
      "inputs": [
        {
          "indexed": true,
          "internalType": "address",
          "name": "owner",
          "type": "address"
        },
        {
          "indexed": true,
          "internalType": "address",
          "name": "operator",
          "type": "address"
        },
        {
          "indexed": false,
          "internalType": "bool",
          "name": "approved",
          "type": "bool"
        }
      ],
      "name": "ApprovalForAll",
      "type": "event"
    },
    {
      "anonymous": false,
      "inputs": [
        {
          "indexed": false,
          "internalType": "uint256",
          "name": "tokenID",
          "type": "uint256"
        },
        {
          "indexed": false,
          "internalType": "address",
          "name": "from",
          "type": "address"
        },
        {
          "indexed": false,
          "internalType": "address",
          "name": "to",
          "type": "address"
        },
        {
          "indexed": false,
          "internalType": "string",
          "name": "tokenURI",
          "type": "string"
        },
        {
          "indexed": false,
          "internalType": "uint256",
          "name": "price",
          "type": "uint256"
        }
      ],
      "name": "NFTTransfer",
      "type": "event"
    },
    {
      "anonymous": false,
      "inputs": [
        {
          "indexed": true,
          "internalType": "address",
          "name": "previousOwner",
          "type": "address"
        },
        {
          "indexed": true,
          "internalType": "address",
          "name": "newOwner",
          "type": "address"
        }
      ],
      "name": "OwnershipTransferred",
      "type": "event"
    },
    {
      "anonymous": false,
      "inputs": [
        {
          "indexed": true,
          "internalType": "address",
          "name": "from",
          "type": "address"
        },
        {
          "indexed": true,
          "internalType": "address",
          "name": "to",
          "type": "address"
        },
        {
          "indexed": true,
          "internalType": "uint256",
          "name": "tokenId",
          "type": "uint256"
        }
      ],
      "name": "Transfer",
      "type": "event"
    },
    {
      "inputs": [
        {
          "internalType": "address",
          "name": "to",
          "type": "address"
        },
        {
          "internalType": "uint256",
          "name": "tokenId",
          "type": "uint256"
        }
      ],
      "name": "approve",
      "outputs": [],
      "stateMutability": "nonpayable",
      "type": "function"
    },
    {
      "inputs": [
        {
          "internalType": "address",
          "name": "owner",
          "type": "address"
        }
      ],
      "name": "balanceOf",
      "outputs": [
        {
          "internalType": "uint256",
          "name": "",
          "type": "uint256"
        }
      ],
      "stateMutability": "view",
      "type": "function"
    },
    {
      "inputs": [
        {
          "internalType": "uint256",
          "name": "tokenID",
          "type": "uint256"
        }
      ],
      "name": "buyNFT",
      "outputs": [],
      "stateMutability": "payable",
      "type": "function"
    },
    {
      "inputs": [
        {
          "internalType": "uint256",
          "name": "tokenID",
          "type": "uint256"
        }
      ],
      "name": "cancelListing",
      "outputs": [],
      "stateMutability": "nonpayable",
      "type": "function"
    },
    {
      "inputs": [
        {
          "internalType": "string",
          "name": "tokenURI",
          "type": "string"
        }
      ],
      "name": "createNFT",
      "outputs": [],
      "stateMutability": "nonpayable",
      "type": "function"
    },
    {
      "inputs": [
        {
          "internalType": "uint256",
          "name": "tokenId",
          "type": "uint256"
        }
      ],
      "name": "getApproved",
      "outputs": [
        {
          "internalType": "address",
          "name": "",
          "type": "address"
        }
      ],
      "stateMutability": "view",
      "type": "function"
    },
    {
      "inputs": [
        {
          "internalType": "address",
          "name": "owner",
          "type": "address"
        },
        {
          "internalType": "address",
          "name": "operator",
          "type": "address"
        }
      ],
      "name": "isApprovedForAll",
      "outputs": [
        {
          "internalType": "bool",
          "name": "",
          "type": "bool"
        }
      ],
      "stateMutability": "view",
      "type": "function"
    },
    {
      "inputs": [
        {
          "internalType": "uint256",
          "name": "tokenID",
          "type": "uint256"
        },
        {
          "internalType": "uint256",
          "name": "price",
          "type": "uint256"
        }
      ],
      "name": "listNFT",
      "outputs": [],
      "stateMutability": "nonpayable",
      "type": "function"
    },
    {
      "inputs": [],
      "name": "name",
      "outputs": [
        {
          "internalType": "string",
          "name": "",
          "type": "string"
        }
      ],
      "stateMutability": "view",
      "type": "function"
    },
    {
      "inputs": [],
      "name": "owner",
      "outputs": [
        {
          "internalType": "address",
          "name": "",
          "type": "address"
        }
      ],
      "stateMutability": "view",
      "type": "function"
    },
    {
      "inputs": [
        {
          "internalType": "uint256",
          "name": "tokenId",
          "type": "uint256"
        }
      ],
      "name": "ownerOf",
      "outputs": [
        {
          "internalType": "address",
          "name": "",
          "type": "address"
        }
      ],
      "stateMutability": "view",
      "type": "function"
    },
    {
      "inputs": [],
      "name": "renounceOwnership",
      "outputs": [],
      "stateMutability": "nonpayable",
      "type": "function"
    },
    {
      "inputs": [
        {
          "internalType": "address",
          "name": "from",
          "type": "address"
        },
        {
          "internalType": "address",
          "name": "to",
          "type": "address"
        },
        {
          "internalType": "uint256",
          "name": "tokenId",
          "type": "uint256"
        }
      ],
      "name": "safeTransferFrom",
      "outputs": [],
      "stateMutability": "nonpayable",
      "type": "function"
    },
    {
      "inputs": [
        {
          "internalType": "address",
          "name": "from",
          "type": "address"
        },
        {
          "internalType": "address",
          "name": "to",
          "type": "address"
        },
        {
          "internalType": "uint256",
          "name": "tokenId",
          "type": "uint256"
        },
        {
          "internalType": "bytes",
          "name": "_data",
          "type": "bytes"
        }
      ],
      "name": "safeTransferFrom",
      "outputs": [],
      "stateMutability": "nonpayable",
      "type": "function"
    },
    {
      "inputs": [
        {
          "internalType": "address",
          "name": "operator",
          "type": "address"
        },
        {
          "internalType": "bool",
          "name": "approved",
          "type": "bool"
        }
      ],
      "name": "setApprovalForAll",
      "outputs": [],
      "stateMutability": "nonpayable",
      "type": "function"
    },
    {
      "inputs": [
        {
          "internalType": "bytes4",
          "name": "interfaceId",
          "type": "bytes4"
        }
      ],
      "name": "supportsInterface",
      "outputs": [
        {
          "internalType": "bool",
          "name": "",
          "type": "bool"
        }
      ],
      "stateMutability": "view",
      "type": "function"
    },
    {
      "inputs": [],
      "name": "symbol",
      "outputs": [
        {
          "internalType": "string",
          "name": "",
          "type": "string"
        }
      ],
      "stateMutability": "view",
      "type": "function"
    },
    {
      "inputs": [
        {
          "internalType": "uint256",
          "name": "tokenId",
          "type": "uint256"
        }
      ],
      "name": "tokenURI",
      "outputs": [
        {
          "internalType": "string",
          "name": "",
          "type": "string"
        }
      ],
      "stateMutability": "view",
      "type": "function"
    },
    {
      "inputs": [
        {
          "internalType": "address",
          "name": "from",
          "type": "address"
        },
        {
          "internalType": "address",
          "name": "to",
          "type": "address"
        },
        {
          "internalType": "uint256",
          "name": "tokenId",
          "type": "uint256"
        }
      ],
      "name": "transferFrom",
      "outputs": [],
      "stateMutability": "nonpayable",
      "type": "function"
    },
    {
      "inputs": [
        {
          "internalType": "address",
          "name": "newOwner",
          "type": "address"
        }
      ],
      "name": "transferOwnership",
      "outputs": [],
      "stateMutability": "nonpayable",
      "type": "function"
    },
    {
      "inputs": [],
      "name": "withdrawFunds",
      "outputs": [],
      "stateMutability": "nonpayable",
      "type": "function"
    }
  ],
  "bytecode": "0x608060405234801561000f575f80fd5b506040518060400160405280600c81526020017f4162646f752773204e46547300000000000000000000000000000000000000008152506040518060400160405280600481526020017f414e465400000000000000000000000000000000000000000000000000000000815250815f908161008a91906103c2565b50806001908161009a91906103c2565b5050506100b96100ae6100be60201b60201c565b6100c560201b60201c565b610491565b5f33905090565b5f60075f9054906101000a900473ffffffffffffffffffffffffffffffffffffffff1690508160075f6101000a81548173ffffffffffffffffffffffffffffffffffffffff021916908373ffffffffffffffffffffffffffffffffffffffff1602179055508173ffffffffffffffffffffffffffffffffffffffff168173ffffffffffffffffffffffffffffffffffffffff167f8be0079c531659141344cd1fd0a4f28419497f9722a3daafe3b4186f6b6457e060405160405180910390a35050565b5f81519050919050565b7f4e487b71000000000000000000000000000000000000000000000000000000005f52604160045260245ffd5b7f4e487b71000000000000000000000000000000000000000000000000000000005f52602260045260245ffd5b5f600282049050600182168061020357607f821691505b602082108103610216576102156101bf565b5b50919050565b5f819050815f5260205f209050919050565b5f6020601f8301049050919050565b5f82821b905092915050565b5f600883026102787fffffffffffffffffffffffffffffffffffffffffffffffffffffffffffffffff8261023d565b610282868361023d565b95508019841693508086168417925050509392505050565b5f819050919050565b5f819050919050565b5f6102c66102c16102bc8461029a565b6102a3565b61029a565b9050919050565b5f819050919050565b6102df836102ac565b6102f36102eb826102cd565b848454610249565b825550505050565b5f90565b6103076102fb565b6103128184846102d6565b505050565b5b818110156103355761032a5f826102ff565b600181019050610318565b5050565b601f82111561037a5761034b8161021c565b6103548461022e565b81016020851015610363578190505b61037761036f8561022e565b830182610317565b50505b505050565b5f82821c905092915050565b5f61039a5f198460080261037f565b1980831691505092915050565b5f6103b2838361038b565b9150826002028217905092915050565b6103cb82610188565b67ffffffffffffffff8111156103e4576103e3610192565b5b6103ee82546101ec565b6103f9828285610339565b5f60209050601f83116001811461042a575f8415610418578287015190505b61042285826103a7565b865550610489565b601f1984166104388661021c565b5f5b8281101561045f5784890151825560018201915060208501945060208101905061043a565b8683101561047c5784890151610478601f89168261038b565b8355505b6001600288020188555050505b505050505050565b613d358061049e5f395ff3fe608060405260043610610129575f3560e01c806370a08231116100aa578063a22cb4651161006e578063a22cb465146103ab578063b88d4fde146103d3578063c87b56dd146103fb578063da2ed03e14610437578063e985e9c51461045f578063f2fde38b1461049b57610129565b806370a08231146102dd578063715018a6146103195780638da5cb5b1461032f57806394383f141461035957806395d89b411461038157610129565b806324600fc3116100f157806324600fc31461021f578063305a67a81461023557806342842e0e1461025d57806351ed8288146102855780636352211e146102a157610129565b806301ffc9a71461012d57806306fdde0314610169578063081812fc14610193578063095ea7b3146101cf57806323b872dd146101f7575b5f80fd5b348015610138575f80fd5b50610153600480360381019061014e91906123c7565b6104c3565b604051610160919061240c565b60405180910390f35b348015610174575f80fd5b5061017d6105a4565b60405161018a9190612495565b60405180910390f35b34801561019e575f80fd5b506101b960048036038101906101b491906124e8565b610633565b6040516101c69190612552565b60405180910390f35b3480156101da575f80fd5b506101f560048036038101906101f09190612595565b6106b4565b005b348015610202575f80fd5b5061021d600480360381019061021891906125d3565b6107ca565b005b34801561022a575f80fd5b5061023361082a565b005b348015610240575f80fd5b5061025b600480360381019061025691906124e8565b610933565b005b348015610268575f80fd5b50610283600480360381019061027e91906125d3565b610b1b565b005b61029f600480360381019061029a91906124e8565b610b3a565b005b3480156102ac575f80fd5b506102c760048036038101906102c291906124e8565b610d66565b6040516102d49190612552565b60405180910390f35b3480156102e8575f80fd5b5061030360048036038101906102fe9190612623565b610e12565b604051610310919061265d565b60405180910390f35b348015610324575f80fd5b5061032d610ec6565b005b34801561033a575f80fd5b50610343610f4d565b6040516103509190612552565b60405180910390f35b348015610364575f80fd5b5061037f600480360381019061037a9190612676565b610f75565b005b34801561038c575f80fd5b50610395611090565b6040516103a29190612495565b60405180910390f35b3480156103b6575f80fd5b506103d160048036038101906103cc91906126de565b611120565b005b3480156103de575f80fd5b506103f960048036038101906103f49190612848565b611136565b005b348015610406575f80fd5b50610421600480360381019061041c91906124e8565b611198565b60405161042e9190612495565b60405180910390f35b348015610442575f80fd5b5061045d60048036038101906104589190612925565b6112e1565b005b34801561046a575f80fd5b5061048560048036038101906104809190612970565b611395565b604051610492919061240c565b60405180910390f35b3480156104a6575f80fd5b506104c160048036038101906104bc9190612623565b611423565b005b5f7f80ac58cd000000000000000000000000000000000000000000000000000000007bffffffffffffffffffffffffffffffffffffffffffffffffffffffff1916827bffffffffffffffffffffffffffffffffffffffffffffffffffffffff1916148061058d57507f5b5e139f000000000000000000000000000000000000000000000000000000007bffffffffffffffffffffffffffffffffffffffffffffffffffffffff1916827bffffffffffffffffffffffffffffffffffffffffffffffffffffffff1916145b8061059d575061059c82611519565b5b9050919050565b60605f80546105b2906129db565b80601f01602080910402602001604051908101604052809291908181526020018280546105de906129db565b80156106295780601f1061060057610100808354040283529160200191610629565b820191905f5260205f20905b81548152906001019060200180831161060c57829003601f168201915b5050505050905090565b5f61063d82611582565b61067c576040517f08c379a000000000000000000000000000000000000000000000000000000000815260040161067390612a7b565b60405180910390fd5b60045f8381526020019081526020015f205f9054906101000a900473ffffffffffffffffffffffffffffffffffffffff169050919050565b5f6106be82610d66565b90508073ffffffffffffffffffffffffffffffffffffffff168373ffffffffffffffffffffffffffffffffffffffff160361072e576040517f08c379a000000000000000000000000000000000000000000000000000000000815260040161072590612b09565b60405180910390fd5b8073ffffffffffffffffffffffffffffffffffffffff1661074d6115ea565b73ffffffffffffffffffffffffffffffffffffffff16148061077c575061077b816107766115ea565b611395565b5b6107bb576040517f08c379a00000000000000000000000000000000000000000000000000000000081526004016107b290612b97565b60405180910390fd5b6107c583836115f1565b505050565b6107db6107d56115ea565b826116a7565b61081a576040517f08c379a000000000000000000000000000000000000000000000000000000000815260040161081190612c25565b60405180910390fd5b610825838383611783565b505050565b6108326115ea565b73ffffffffffffffffffffffffffffffffffffffff16610850610f4d565b73ffffffffffffffffffffffffffffffffffffffff16146108a6576040517f08c379a000000000000000000000000000000000000000000000000000000000815260040161089d90612c8d565b60405180910390fd5b5f4790505f81116108ec576040517f08c379a00000000000000000000000000000000000000000000000000000000081526004016108e390612cf5565b60405180910390fd5b3373ffffffffffffffffffffffffffffffffffffffff166108fc8290811502906040515f60405180830381858888f1935050505015801561092f573d5f803e3d5ffd5b5050565b5f60095f8381526020019081526020015f206040518060400160405290815f8201548152602001600182015f9054906101000a900473ffffffffffffffffffffffffffffffffffffffff1673ffffffffffffffffffffffffffffffffffffffff1673ffffffffffffffffffffffffffffffffffffffff168152505090505f815f0151116109f5576040517f08c379a00000000000000000000000000000000000000000000000000000000081526004016109ec90612d83565b60405180910390fd5b3373ffffffffffffffffffffffffffffffffffffffff16816020015173ffffffffffffffffffffffffffffffffffffffff1614610a67576040517f08c379a0000000000000000000000000000000000000000000000000000000008152600401610a5e90612deb565b60405180910390fd5b3073ffffffffffffffffffffffffffffffffffffffff166323b872dd3033856040518463ffffffff1660e01b8152600401610aa493929190612e09565b5f604051808303815f87803b158015610abb575f80fd5b505af1158015610acd573d5f803e3d5ffd5b50505050610ada826119d3565b7f705332a8918666802fc1504f63ff1f002a5f6cedd30d59ad7ae0b5281aeb8dca8230335f604051610b0f9493929190612ea3565b60405180910390a15050565b610b3583838360405180602001604052805f815250611136565b505050565b5f60095f8381526020019081526020015f206040518060400160405290815f8201548152602001600182015f9054906101000a900473ffffffffffffffffffffffffffffffffffffffff1673ffffffffffffffffffffffffffffffffffffffff1673ffffffffffffffffffffffffffffffffffffffff168152505090505f815f015111610bfc576040517f08c379a0000000000000000000000000000000000000000000000000000000008152600401610bf390612d83565b60405180910390fd5b805f01513414610c41576040517f08c379a0000000000000000000000000000000000000000000000000000000008152600401610c3890612f43565b60405180910390fd5b3073ffffffffffffffffffffffffffffffffffffffff166323b872dd3033856040518463ffffffff1660e01b8152600401610c7e93929190612e09565b5f604051808303815f87803b158015610c95575f80fd5b505af1158015610ca7573d5f803e3d5ffd5b50505050610cb4826119d3565b806020015173ffffffffffffffffffffffffffffffffffffffff166108fc610cfc6064610cee605f865f0151611a4090919063ffffffff16565b611a5590919063ffffffff16565b90811502906040515f60405180830381858888f19350505050158015610d24573d5f803e3d5ffd5b507f705332a8918666802fc1504f63ff1f002a5f6cedd30d59ad7ae0b5281aeb8dca8230335f604051610d5a9493929190612ea3565b60405180910390a15050565b5f8060025f8481526020019081526020015f205f9054906101000a900473ffffffffffffffffffffffffffffffffffffffff1690505f73ffffffffffffffffffffffffffffffffffffffff168173ffffffffffffffffffffffffffffffffffffffff1603610e09576040517f08c379a0000000000000000000000000000000000000000000000000000000008152600401610e0090612fd1565b60405180910390fd5b80915050919050565b5f8073ffffffffffffffffffffffffffffffffffffffff168273ffffffffffffffffffffffffffffffffffffffff1603610e81576040517f08c379a0000000000000000000000000000000000000000000000000000000008152600401610e789061305f565b60405180910390fd5b60035f8373ffffffffffffffffffffffffffffffffffffffff1673ffffffffffffffffffffffffffffffffffffffff1681526020019081526020015f20549050919050565b610ece6115ea565b73ffffffffffffffffffffffffffffffffffffffff16610eec610f4d565b73ffffffffffffffffffffffffffffffffffffffff1614610f42576040517f08c379a0000000000000000000000000000000000000000000000000000000008152600401610f3990612c8d565b60405180910390fd5b610f4b5f611a6a565b565b5f60075f9054906101000a900473ffffffffffffffffffffffffffffffffffffffff16905090565b5f8111610fb7576040517f08c379a0000000000000000000000000000000000000000000000000000000008152600401610fae906130ed565b60405180910390fd5b610fc23330846107ca565b60405180604001604052808281526020013373ffffffffffffffffffffffffffffffffffffffff1681525060095f8481526020019081526020015f205f820151815f01556020820151816001015f6101000a81548173ffffffffffffffffffffffffffffffffffffffff021916908373ffffffffffffffffffffffffffffffffffffffff1602179055509050507f705332a8918666802fc1504f63ff1f002a5f6cedd30d59ad7ae0b5281aeb8dca82333084604051611084949392919061310b565b60405180910390a15050565b60606001805461109f906129db565b80601f01602080910402602001604051908101604052809291908181526020018280546110cb906129db565b80156111165780601f106110ed57610100808354040283529160200191611116565b820191905f5260205f20905b8154815290600101906020018083116110f957829003601f168201915b5050505050905090565b61113261112b6115ea565b8383611b2d565b5050565b6111476111416115ea565b836116a7565b611186576040517f08c379a000000000000000000000000000000000000000000000000000000000815260040161117d90612c25565b60405180910390fd5b61119284848484611c94565b50505050565b60606111a382611582565b6111e2576040517f08c379a00000000000000000000000000000000000000000000000000000000081526004016111d9906131d1565b60405180910390fd5b5f60065f8481526020019081526020015f2080546111ff906129db565b80601f016020809104026020016040519081016040528092919081815260200182805461122b906129db565b80156112765780601f1061124d57610100808354040283529160200191611276565b820191905f5260205f20905b81548152906001019060200180831161125957829003601f168201915b505050505090505f611286611cf0565b90505f81510361129a5781925050506112dc565b5f825111156112ce5780826040516020016112b6929190613229565b604051602081830303815290604052925050506112dc565b6112d784611d06565b925050505b919050565b6112eb6008611daa565b5f6112f66008611dbe565b90506113023382611dca565b61134f8184848080601f0160208091040260200160405190810160405280939291908181526020018383808284375f81840152601f19601f82011690508083019250505050505050611de7565b7f705332a8918666802fc1504f63ff1f002a5f6cedd30d59ad7ae0b5281aeb8dca815f3386865f60405161138896959493929190613278565b60405180910390a1505050565b5f60055f8473ffffffffffffffffffffffffffffffffffffffff1673ffffffffffffffffffffffffffffffffffffffff1681526020019081526020015f205f8373ffffffffffffffffffffffffffffffffffffffff1673ffffffffffffffffffffffffffffffffffffffff1681526020019081526020015f205f9054906101000a900460ff16905092915050565b61142b6115ea565b73ffffffffffffffffffffffffffffffffffffffff16611449610f4d565b73ffffffffffffffffffffffffffffffffffffffff161461149f576040517f08c379a000000000000000000000000000000000000000000000000000000000815260040161149690612c8d565b60405180910390fd5b5f73ffffffffffffffffffffffffffffffffffffffff168173ffffffffffffffffffffffffffffffffffffffff160361150d576040517f08c379a000000000000000000000000000000000000000000000000000000000815260040161150490613342565b60405180910390fd5b61151681611a6a565b50565b5f7f01ffc9a7000000000000000000000000000000000000000000000000000000007bffffffffffffffffffffffffffffffffffffffffffffffffffffffff1916827bffffffffffffffffffffffffffffffffffffffffffffffffffffffff1916149050919050565b5f8073ffffffffffffffffffffffffffffffffffffffff1660025f8481526020019081526020015f205f9054906101000a900473ffffffffffffffffffffffffffffffffffffffff1673ffffffffffffffffffffffffffffffffffffffff1614159050919050565b5f33905090565b8160045f8381526020019081526020015f205f6101000a81548173ffffffffffffffffffffffffffffffffffffffff021916908373ffffffffffffffffffffffffffffffffffffffff160217905550808273ffffffffffffffffffffffffffffffffffffffff1661166183610d66565b73ffffffffffffffffffffffffffffffffffffffff167f8c5be1e5ebec7d5bd14f71427d1e84f3dd0314c0f7b2291e5b200ac8c7c3b92560405160405180910390a45050565b5f6116b182611582565b6116f0576040517f08c379a00000000000000000000000000000000000000000000000000000000081526004016116e7906133d0565b60405180910390fd5b5f6116fa83610d66565b90508073ffffffffffffffffffffffffffffffffffffffff168473ffffffffffffffffffffffffffffffffffffffff16148061176957508373ffffffffffffffffffffffffffffffffffffffff1661175184610633565b73ffffffffffffffffffffffffffffffffffffffff16145b8061177a57506117798185611395565b5b91505092915050565b8273ffffffffffffffffffffffffffffffffffffffff166117a382610d66565b73ffffffffffffffffffffffffffffffffffffffff16146117f9576040517f08c379a00000000000000000000000000000000000000000000000000000000081526004016117f09061345e565b60405180910390fd5b5f73ffffffffffffffffffffffffffffffffffffffff168273ffffffffffffffffffffffffffffffffffffffff1603611867576040517f08c379a000000000000000000000000000000000000000000000000000000000815260040161185e906134ec565b60405180910390fd5b611872838383611e52565b61187c5f826115f1565b600160035f8573ffffffffffffffffffffffffffffffffffffffff1673ffffffffffffffffffffffffffffffffffffffff1681526020019081526020015f205f8282546118c99190613537565b92505081905550600160035f8473ffffffffffffffffffffffffffffffffffffffff1673ffffffffffffffffffffffffffffffffffffffff1681526020019081526020015f205f82825461191d919061356a565b925050819055508160025f8381526020019081526020015f205f6101000a81548173ffffffffffffffffffffffffffffffffffffffff021916908373ffffffffffffffffffffffffffffffffffffffff160217905550808273ffffffffffffffffffffffffffffffffffffffff168473ffffffffffffffffffffffffffffffffffffffff167fddf252ad1be2c89b69c2b068fc378daa952ba7f163c4a11628f55a4df523b3ef60405160405180910390a4505050565b5f60095f8381526020019081526020015f205f01819055505f60095f8381526020019081526020015f206001015f6101000a81548173ffffffffffffffffffffffffffffffffffffffff021916908373ffffffffffffffffffffffffffffffffffffffff16021790555050565b5f8183611a4d919061359d565b905092915050565b5f8183611a62919061360b565b905092915050565b5f60075f9054906101000a900473ffffffffffffffffffffffffffffffffffffffff1690508160075f6101000a81548173ffffffffffffffffffffffffffffffffffffffff021916908373ffffffffffffffffffffffffffffffffffffffff1602179055508173ffffffffffffffffffffffffffffffffffffffff168173ffffffffffffffffffffffffffffffffffffffff167f8be0079c531659141344cd1fd0a4f28419497f9722a3daafe3b4186f6b6457e060405160405180910390a35050565b8173ffffffffffffffffffffffffffffffffffffffff168373ffffffffffffffffffffffffffffffffffffffff1603611b9b576040517f08c379a0000000000000000000000000000000000000000000000000000000008152600401611b9290613685565b60405180910390fd5b8060055f8573ffffffffffffffffffffffffffffffffffffffff1673ffffffffffffffffffffffffffffffffffffffff1681526020019081526020015f205f8473ffffffffffffffffffffffffffffffffffffffff1673ffffffffffffffffffffffffffffffffffffffff1681526020019081526020015f205f6101000a81548160ff0219169083151502179055508173ffffffffffffffffffffffffffffffffffffffff168373ffffffffffffffffffffffffffffffffffffffff167f17307eab39ab6107e8899845ad3d59bd9653f200f220920489ca2b5937696c3183604051611c87919061240c565b60405180910390a3505050565b611c9f848484611783565b611cab84848484611e57565b611cea576040517f08c379a0000000000000000000000000000000000000000000000000000000008152600401611ce190613713565b60405180910390fd5b50505050565b606060405180602001604052805f815250905090565b6060611d1182611582565b611d50576040517f08c379a0000000000000000000000000000000000000000000000000000000008152600401611d47906137a1565b60405180910390fd5b5f611d59611cf0565b90505f815111611d775760405180602001604052805f815250611da2565b80611d8184611fd9565b604051602001611d92929190613229565b6040516020818303038152906040525b915050919050565b6001815f015f828254019250508190555050565b5f815f01549050919050565b611de3828260405180602001604052805f815250612132565b5050565b611df082611582565b611e2f576040517f08c379a0000000000000000000000000000000000000000000000000000000008152600401611e269061382f565b60405180910390fd5b8060065f8481526020019081526020015f209081611e4d91906139e1565b505050565b505050565b5f611e778473ffffffffffffffffffffffffffffffffffffffff1661218c565b15611fcc578373ffffffffffffffffffffffffffffffffffffffff1663150b7a02611ea06115ea565b8786866040518563ffffffff1660e01b8152600401611ec29493929190613b02565b6020604051808303815f875af1925050508015611efd57506040513d601f19601f82011682018060405250810190611efa9190613b60565b60015b611f7c573d805f8114611f2b576040519150601f19603f3d011682016040523d82523d5f602084013e611f30565b606091505b505f815103611f74576040517f08c379a0000000000000000000000000000000000000000000000000000000008152600401611f6b90613713565b60405180910390fd5b805181602001fd5b63150b7a0260e01b7bffffffffffffffffffffffffffffffffffffffffffffffffffffffff1916817bffffffffffffffffffffffffffffffffffffffffffffffffffffffff191614915050611fd1565b600190505b949350505050565b60605f820361201f576040518060400160405280600181526020017f3000000000000000000000000000000000000000000000000000000000000000815250905061212d565b5f8290505f5b5f821461204e57808061203790613b8b565b915050600a82612047919061360b565b9150612025565b5f8167ffffffffffffffff81111561206957612068612724565b5b6040519080825280601f01601f19166020018201604052801561209b5781602001600182028036833780820191505090505b5090505b5f8514612126576001826120b39190613537565b9150600a856120c29190613bd2565b60306120ce919061356a565b60f81b8183815181106120e4576120e3613c02565b5b60200101907effffffffffffffffffffffffffffffffffffffffffffffffffffffffffffff191690815f1a905350600a8561211f919061360b565b945061209f565b8093505050505b919050565b61213c838361219d565b6121485f848484611e57565b612187576040517f08c379a000000000000000000000000000000000000000000000000000000000815260040161217e90613713565b60405180910390fd5b505050565b5f80823b90505f8111915050919050565b5f73ffffffffffffffffffffffffffffffffffffffff168273ffffffffffffffffffffffffffffffffffffffff160361220b576040517f08c379a000000000000000000000000000000000000000000000000000000000815260040161220290613c79565b60405180910390fd5b61221481611582565b15612254576040517f08c379a000000000000000000000000000000000000000000000000000000000815260040161224b90613ce1565b60405180910390fd5b61225f5f8383611e52565b600160035f8473ffffffffffffffffffffffffffffffffffffffff1673ffffffffffffffffffffffffffffffffffffffff1681526020019081526020015f205f8282546122ac919061356a565b925050819055508160025f8381526020019081526020015f205f6101000a81548173ffffffffffffffffffffffffffffffffffffffff021916908373ffffffffffffffffffffffffffffffffffffffff160217905550808273ffffffffffffffffffffffffffffffffffffffff165f73ffffffffffffffffffffffffffffffffffffffff167fddf252ad1be2c89b69c2b068fc378daa952ba7f163c4a11628f55a4df523b3ef60405160405180910390a45050565b5f604051905090565b5f80fd5b5f80fd5b5f7fffffffff0000000000000000000000000000000000000000000000000000000082169050919050565b6123a681612372565b81146123b0575f80fd5b50565b5f813590506123c18161239d565b92915050565b5f602082840312156123dc576123db61236a565b5b5f6123e9848285016123b3565b91505092915050565b5f8115159050919050565b612406816123f2565b82525050565b5f60208201905061241f5f8301846123fd565b92915050565b5f81519050919050565b5f82825260208201905092915050565b8281835e5f83830152505050565b5f601f19601f8301169050919050565b5f61246782612425565b612471818561242f565b935061248181856020860161243f565b61248a8161244d565b840191505092915050565b5f6020820190508181035f8301526124ad818461245d565b905092915050565b5f819050919050565b6124c7816124b5565b81146124d1575f80fd5b50565b5f813590506124e2816124be565b92915050565b5f602082840312156124fd576124fc61236a565b5b5f61250a848285016124d4565b91505092915050565b5f73ffffffffffffffffffffffffffffffffffffffff82169050919050565b5f61253c82612513565b9050919050565b61254c81612532565b82525050565b5f6020820190506125655f830184612543565b92915050565b61257481612532565b811461257e575f80fd5b50565b5f8135905061258f8161256b565b92915050565b5f80604083850312156125ab576125aa61236a565b5b5f6125b885828601612581565b92505060206125c9858286016124d4565b9150509250929050565b5f805f606084860312156125ea576125e961236a565b5b5f6125f786828701612581565b935050602061260886828701612581565b9250506040612619868287016124d4565b9150509250925092565b5f602082840312156126385761263761236a565b5b5f61264584828501612581565b91505092915050565b612657816124b5565b82525050565b5f6020820190506126705f83018461264e565b92915050565b5f806040838503121561268c5761268b61236a565b5b5f612699858286016124d4565b92505060206126aa858286016124d4565b9150509250929050565b6126bd816123f2565b81146126c7575f80fd5b50565b5f813590506126d8816126b4565b92915050565b5f80604083850312156126f4576126f361236a565b5b5f61270185828601612581565b9250506020612712858286016126ca565b9150509250929050565b5f80fd5b5f80fd5b7f4e487b71000000000000000000000000000000000000000000000000000000005f52604160045260245ffd5b61275a8261244d565b810181811067ffffffffffffffff8211171561277957612778612724565b5b80604052505050565b5f61278b612361565b90506127978282612751565b919050565b5f67ffffffffffffffff8211156127b6576127b5612724565b5b6127bf8261244d565b9050602081019050919050565b828183375f83830152505050565b5f6127ec6127e78461279c565b612782565b90508281526020810184848401111561280857612807612720565b5b6128138482856127cc565b509392505050565b5f82601f83011261282f5761282e61271c565b5b813561283f8482602086016127da565b91505092915050565b5f805f80608085870312156128605761285f61236a565b5b5f61286d87828801612581565b945050602061287e87828801612581565b935050604061288f878288016124d4565b925050606085013567ffffffffffffffff8111156128b0576128af61236e565b5b6128bc8782880161281b565b91505092959194509250565b5f80fd5b5f80fd5b5f8083601f8401126128e5576128e461271c565b5b8235905067ffffffffffffffff811115612902576129016128c8565b5b60208301915083600182028301111561291e5761291d6128cc565b5b9250929050565b5f806020838503121561293b5761293a61236a565b5b5f83013567ffffffffffffffff8111156129585761295761236e565b5b612964858286016128d0565b92509250509250929050565b5f80604083850312156129865761298561236a565b5b5f61299385828601612581565b92505060206129a485828601612581565b9150509250929050565b7f4e487b71000000000000000000000000000000000000000000000000000000005f52602260045260245ffd5b5f60028204905060018216806129f257607f821691505b602082108103612a0557612a046129ae565b5b50919050565b7f4552433732313a20617070726f76656420717565727920666f72206e6f6e65785f8201527f697374656e7420746f6b656e0000000000000000000000000000000000000000602082015250565b5f612a65602c8361242f565b9150612a7082612a0b565b604082019050919050565b5f6020820190508181035f830152612a9281612a59565b9050919050565b7f4552433732313a20617070726f76616c20746f2063757272656e74206f776e655f8201527f7200000000000000000000000000000000000000000000000000000000000000602082015250565b5f612af360218361242f565b9150612afe82612a99565b604082019050919050565b5f6020820190508181035f830152612b2081612ae7565b9050919050565b7f4552433732313a20617070726f76652063616c6c6572206973206e6f74206f775f8201527f6e6572206e6f7220617070726f76656420666f7220616c6c0000000000000000602082015250565b5f612b8160388361242f565b9150612b8c82612b27565b604082019050919050565b5f6020820190508181035f830152612bae81612b75565b9050919050565b7f4552433732313a207472616e736665722063616c6c6572206973206e6f74206f5f8201527f776e6572206e6f7220617070726f766564000000000000000000000000000000602082015250565b5f612c0f60318361242f565b9150612c1a82612bb5565b604082019050919050565b5f6020820190508181035f830152612c3c81612c03565b9050919050565b7f4f776e61626c653a2063616c6c6572206973206e6f7420746865206f776e65725f82015250565b5f612c7760208361242f565b9150612c8282612c43565b602082019050919050565b5f6020820190508181035f830152612ca481612c6b565b9050919050565b7f4e46544d61726b65743a2062616c616e6365206973207a65726f0000000000005f82015250565b5f612cdf601a8361242f565b9150612cea82612cab565b602082019050919050565b5f6020820190508181035f830152612d0c81612cd3565b9050919050565b7f4e46544d61726b65743a206e6674206e6f74206c697374656420666f722073615f8201527f6c65000000000000000000000000000000000000000000000000000000000000602082015250565b5f612d6d60228361242f565b9150612d7882612d13565b604082019050919050565b5f6020820190508181035f830152612d9a81612d61565b9050919050565b7f4e46544d61726b65743a20796f75277265206e6f74207468652073656c6c65725f82015250565b5f612dd560208361242f565b9150612de082612da1565b602082019050919050565b5f6020820190508181035f830152612e0281612dc9565b9050919050565b5f606082019050612e1c5f830186612543565b612e296020830185612543565b612e36604083018461264e565b949350505050565b50565b5f612e4c5f8361242f565b9150612e5782612e3e565b5f82019050919050565b5f819050919050565b5f819050919050565b5f612e8d612e88612e8384612e61565b612e6a565b6124b5565b9050919050565b612e9d81612e73565b82525050565b5f60a082019050612eb65f83018761264e565b612ec36020830186612543565b612ed06040830185612543565b8181036060830152612ee181612e41565b9050612ef06080830184612e94565b95945050505050565b7f4e46544d61726b65743a20696e636f72726563742070726963650000000000005f82015250565b5f612f2d601a8361242f565b9150612f3882612ef9565b602082019050919050565b5f6020820190508181035f830152612f5a81612f21565b9050919050565b7f4552433732313a206f776e657220717565727920666f72206e6f6e65786973745f8201527f656e7420746f6b656e0000000000000000000000000000000000000000000000602082015250565b5f612fbb60298361242f565b9150612fc682612f61565b604082019050919050565b5f6020820190508181035f830152612fe881612faf565b9050919050565b7f4552433732313a2062616c616e636520717565727920666f7220746865207a655f8201527f726f206164647265737300000000000000000000000000000000000000000000602082015250565b5f613049602a8361242f565b915061305482612fef565b604082019050919050565b5f6020820190508181035f8301526130768161303d565b9050919050565b7f4e46544d61726b65743a207072696365206d75737420626520677265617465725f8201527f207468616e203000000000000000000000000000000000000000000000000000602082015250565b5f6130d760278361242f565b91506130e28261307d565b604082019050919050565b5f6020820190508181035f830152613104816130cb565b9050919050565b5f60a08201905061311e5f83018761264e565b61312b6020830186612543565b6131386040830185612543565b818103606083015261314981612e41565b9050613158608083018461264e565b95945050505050565b7f45524337323155524953746f726167653a2055524920717565727920666f72205f8201527f6e6f6e6578697374656e7420746f6b656e000000000000000000000000000000602082015250565b5f6131bb60318361242f565b91506131c682613161565b604082019050919050565b5f6020820190508181035f8301526131e8816131af565b9050919050565b5f81905092915050565b5f61320382612425565b61320d81856131ef565b935061321d81856020860161243f565b80840191505092915050565b5f61323482856131f9565b915061324082846131f9565b91508190509392505050565b5f613257838561242f565b93506132648385846127cc565b61326d8361244d565b840190509392505050565b5f60a08201905061328b5f83018961264e565b6132986020830188612543565b6132a56040830187612543565b81810360608301526132b881858761324c565b90506132c76080830184612e94565b979650505050505050565b7f4f776e61626c653a206e6577206f776e657220697320746865207a65726f20615f8201527f6464726573730000000000000000000000000000000000000000000000000000602082015250565b5f61332c60268361242f565b9150613337826132d2565b604082019050919050565b5f6020820190508181035f83015261335981613320565b9050919050565b7f4552433732313a206f70657261746f7220717565727920666f72206e6f6e65785f8201527f697374656e7420746f6b656e0000000000000000000000000000000000000000602082015250565b5f6133ba602c8361242f565b91506133c582613360565b604082019050919050565b5f6020820190508181035f8301526133e7816133ae565b9050919050565b7f4552433732313a207472616e73666572206f6620746f6b656e207468617420695f8201527f73206e6f74206f776e0000000000000000000000000000000000000000000000602082015250565b5f61344860298361242f565b9150613453826133ee565b604082019050919050565b5f6020820190508181035f8301526134758161343c565b9050919050565b7f4552433732313a207472616e7366657220746f20746865207a65726f206164645f8201527f7265737300000000000000000000000000000000000000000000000000000000602082015250565b5f6134d660248361242f565b91506134e18261347c565b604082019050919050565b5f6020820190508181035f830152613503816134ca565b9050919050565b7f4e487b71000000000000000000000000000000000000000000000000000000005f52601160045260245ffd5b5f613541826124b5565b915061354c836124b5565b92508282039050818111156135645761356361350a565b5b92915050565b5f613574826124b5565b915061357f836124b5565b92508282019050808211156135975761359661350a565b5b92915050565b5f6135a7826124b5565b91506135b2836124b5565b92508282026135c0816124b5565b915082820484148315176135d7576135d661350a565b5b5092915050565b7f4e487b71000000000000000000000000000000000000000000000000000000005f52601260045260245ffd5b5f613615826124b5565b9150613620836124b5565b9250826136305761362f6135de565b5b828204905092915050565b7f4552433732313a20617070726f766520746f2063616c6c6572000000000000005f82015250565b5f61366f60198361242f565b915061367a8261363b565b602082019050919050565b5f6020820190508181035f83015261369c81613663565b9050919050565b7f4552433732313a207472616e7366657220746f206e6f6e2045524337323152655f8201527f63656976657220696d706c656d656e7465720000000000000000000000000000602082015250565b5f6136fd60328361242f565b9150613708826136a3565b604082019050919050565b5f6020820190508181035f83015261372a816136f1565b9050919050565b7f4552433732314d657461646174613a2055524920717565727920666f72206e6f5f8201527f6e6578697374656e7420746f6b656e0000000000000000000000000000000000602082015250565b5f61378b602f8361242f565b915061379682613731565b604082019050919050565b5f6020820190508181035f8301526137b88161377f565b9050919050565b7f45524337323155524953746f726167653a2055524920736574206f66206e6f6e5f8201527f6578697374656e7420746f6b656e000000000000000000000000000000000000602082015250565b5f613819602e8361242f565b9150613824826137bf565b604082019050919050565b5f6020820190508181035f8301526138468161380d565b9050919050565b5f819050815f5260205f209050919050565b5f6020601f8301049050919050565b5f82821b905092915050565b5f600883026138a97fffffffffffffffffffffffffffffffffffffffffffffffffffffffffffffffff8261386e565b6138b3868361386e565b95508019841693508086168417925050509392505050565b5f6138e56138e06138db846124b5565b612e6a565b6124b5565b9050919050565b5f819050919050565b6138fe836138cb565b61391261390a826138ec565b84845461387a565b825550505050565b5f90565b61392661391a565b6139318184846138f5565b505050565b5b81811015613954576139495f8261391e565b600181019050613937565b5050565b601f8211156139995761396a8161384d565b6139738461385f565b81016020851015613982578190505b61399661398e8561385f565b830182613936565b50505b505050565b5f82821c905092915050565b5f6139b95f198460080261399e565b1980831691505092915050565b5f6139d183836139aa565b9150826002028217905092915050565b6139ea82612425565b67ffffffffffffffff811115613a0357613a02612724565b5b613a0d82546129db565b613a18828285613958565b5f60209050601f831160018114613a49575f8415613a37578287015190505b613a4185826139c6565b865550613aa8565b601f198416613a578661384d565b5f5b82811015613a7e57848901518255600182019150602085019450602081019050613a59565b86831015613a9b5784890151613a97601f8916826139aa565b8355505b6001600288020188555050505b505050505050565b5f81519050919050565b5f82825260208201905092915050565b5f613ad482613ab0565b613ade8185613aba565b9350613aee81856020860161243f565b613af78161244d565b840191505092915050565b5f608082019050613b155f830187612543565b613b226020830186612543565b613b2f604083018561264e565b8181036060830152613b418184613aca565b905095945050505050565b5f81519050613b5a8161239d565b92915050565b5f60208284031215613b7557613b7461236a565b5b5f613b8284828501613b4c565b91505092915050565b5f613b95826124b5565b91507fffffffffffffffffffffffffffffffffffffffffffffffffffffffffffffffff8203613bc757613bc661350a565b5b600182019050919050565b5f613bdc826124b5565b9150613be7836124b5565b925082613bf757613bf66135de565b5b828206905092915050565b7f4e487b71000000000000000000000000000000000000000000000000000000005f52603260045260245ffd5b7f4552433732313a206d696e7420746f20746865207a65726f20616464726573735f82015250565b5f613c6360208361242f565b9150613c6e82613c2f565b602082019050919050565b5f6020820190508181035f830152613c9081613c57565b9050919050565b7f4552433732313a20746f6b656e20616c7265616479206d696e746564000000005f82015250565b5f613ccb601c8361242f565b9150613cd682613c97565b602082019050919050565b5f6020820190508181035f830152613cf881613cbf565b905091905056fea2646970667358221220e347f69857e66e6acb04fda54087c588d46af702b7eec9a51e5ac5499fd56f3964736f6c634300081a0033",
  "linkReferences": {},
  "deployedLinkReferences": {}
}